{
  "contractName": "Grade",
  "abi": [
    {
      "inputs": [
        {
          "internalType": "uint256",
          "name": "",
          "type": "uint256"
        }
      ],
      "name": "students_array",
      "outputs": [
        {
          "internalType": "string",
          "name": "name",
          "type": "string"
        },
        {
          "internalType": "uint8",
          "name": "grade",
          "type": "uint8"
        }
      ],
      "stateMutability": "view",
      "type": "function"
    },
    {
      "inputs": [
        {
          "internalType": "address",
          "name": "",
          "type": "address"
        }
      ],
      "name": "students_mapping",
      "outputs": [
        {
          "internalType": "string",
          "name": "name",
          "type": "string"
        },
        {
          "internalType": "uint8",
          "name": "grade",
          "type": "uint8"
        }
      ],
      "stateMutability": "view",
      "type": "function"
    },
    {
      "inputs": [],
      "name": "test",
      "outputs": [
        {
          "internalType": "uint256",
          "name": "",
          "type": "uint256"
        }
      ],
      "stateMutability": "view",
      "type": "function"
    },
    {
      "inputs": [
        {
          "internalType": "string",
          "name": "_name",
          "type": "string"
        },
        {
          "internalType": "uint8",
          "name": "_grade",
          "type": "uint8"
        },
        {
          "internalType": "address",
          "name": "_at",
          "type": "address"
        }
      ],
      "name": "setStudent",
      "outputs": [],
      "stateMutability": "nonpayable",
      "type": "function"
    },
    {
      "inputs": [
        {
          "internalType": "address",
          "name": "_at",
          "type": "address"
        }
      ],
      "name": "deleteStudent",
      "outputs": [],
      "stateMutability": "nonpayable",
      "type": "function"
    },
    {
      "inputs": [
        {
          "internalType": "string",
          "name": "_name",
          "type": "string"
        }
      ],
      "name": "getStudentInArray",
      "outputs": [
        {
          "components": [
            {
              "internalType": "string",
              "name": "name",
              "type": "string"
            },
            {
              "internalType": "uint8",
              "name": "grade",
              "type": "uint8"
            }
          ],
          "internalType": "struct Grade.Student",
          "name": "",
          "type": "tuple"
        }
      ],
      "stateMutability": "view",
      "type": "function"
    },
    {
      "inputs": [
        {
          "internalType": "address",
          "name": "_at",
          "type": "address"
        }
      ],
      "name": "getStudentMapping",
      "outputs": [
        {
          "components": [
            {
              "internalType": "string",
              "name": "name",
              "type": "string"
            },
            {
              "internalType": "uint8",
              "name": "grade",
              "type": "uint8"
            }
          ],
          "internalType": "struct Grade.Student",
          "name": "",
          "type": "tuple"
        }
      ],
      "stateMutability": "view",
      "type": "function"
    }
  ],
  "bytecode": "0x608060405234801561001057600080fd5b506117a5806100206000396000f3fe608060405234801561001057600080fd5b506004361061007d5760003560e01c8063730bcc5d1161005b578063730bcc5d146100ff578063a89582db1461011b578063b1abdfe81461014c578063f8a8fd6d1461017c5761007d565b806315b72417146100825780632cec33af146100b35780635a0da3a6146100e3575b600080fd5b61009c60048036038101906100979190611114565b61019a565b6040516100aa9291906111f6565b60405180910390f35b6100cd60048036038101906100c89190611114565b610253565b6040516100da91906112bc565b60405180910390f35b6100fd60048036038101906100f8919061136f565b61047e565b005b61011960048036038101906101149190611114565b6107a7565b005b61013560048036038101906101309190611419565b610a7c565b6040516101439291906111f6565b60405180910390f35b61016660048036038101906101619190611446565b610b45565b60405161017391906112bc565b60405180910390f35b610184610db2565b60405161019191906114a2565b60405180910390f35b60016020528060005260406000206000915090508060000180546101bd906114ec565b80601f01602080910402602001604051908101604052809291908181526020018280546101e9906114ec565b80156102365780601f1061020b57610100808354040283529160200191610236565b820191906000526020600020905b81548152906001019060200180831161021957829003601f168201915b5050505050908060010160009054906101000a900460ff16905082565b61025b610f26565b61033e600160008473ffffffffffffffffffffffffffffffffffffffff1673ffffffffffffffffffffffffffffffffffffffff16815260200190815260200160002060000180546102ab906114ec565b80601f01602080910402602001604051908101604052809291908181526020018280546102d7906114ec565b80156103245780601f106102f957610100808354040283529160200191610324565b820191906000526020600020905b81548152906001019060200180831161030757829003601f168201915b505050505060405180602001604052806000815250610db8565b1561037e576040517f08c379a000000000000000000000000000000000000000000000000000000000815260040161037590611569565b60405180910390fd5b600160008373ffffffffffffffffffffffffffffffffffffffff1673ffffffffffffffffffffffffffffffffffffffff1681526020019081526020016000206040518060400160405290816000820180546103d8906114ec565b80601f0160208091040260200160405190810160405280929190818152602001828054610404906114ec565b80156104515780601f1061042657610100808354040283529160200191610451565b820191906000526020600020905b81548152906001019060200180831161043457829003601f168201915b505050505081526020016001820160009054906101000a900460ff1660ff1660ff16815250509050919050565b6104cb84848080601f016020809104026020016040519081016040528093929190818152602001838380828437600081840152601f19601f82011690508083019250505050505050610e21565b1561050b576040517f08c379a0000000000000000000000000000000000000000000000000000000008152600401610502906115d5565b60405180910390fd5b6105ee600160008373ffffffffffffffffffffffffffffffffffffffff1673ffffffffffffffffffffffffffffffffffffffff168152602001908152602001600020600001805461055b906114ec565b80601f0160208091040260200160405190810160405280929190818152602001828054610587906114ec565b80156105d45780601f106105a9576101008083540402835291602001916105d4565b820191906000526020600020905b8154815290600101906020018083116105b757829003601f168201915b505050505060405180602001604052806000815250610db8565b61062d576040517f08c379a000000000000000000000000000000000000000000000000000000000815260040161062490611641565b60405180910390fd5b6002604051806040016040528086868080601f016020809104026020016040519081016040528093929190818152602001838380828437600081840152601f19601f8201169050808301925050505050505081526020018460ff16815250908060018154018082558091505060019003906000526020600020906002020160009091909190915060008201518160000190805190602001906106d0929190610f43565b5060208201518160010160006101000a81548160ff021916908360ff16021790555050508383600160008473ffffffffffffffffffffffffffffffffffffffff1673ffffffffffffffffffffffffffffffffffffffff1681526020019081526020016000206000019190610745929190610fc9565b5081600160008373ffffffffffffffffffffffffffffffffffffffff1673ffffffffffffffffffffffffffffffffffffffff16815260200190815260200160002060010160006101000a81548160ff021916908360ff16021790555050505050565b600060028054905090505b60008111156109b65761094860026001836107cd9190611690565b815481106107de576107dd6116c4565b5b906000526020600020906002020160000180546107fa906114ec565b80601f0160208091040260200160405190810160405280929190818152602001828054610826906114ec565b80156108735780601f1061084857610100808354040283529160200191610873565b820191906000526020600020905b81548152906001019060200180831161085657829003601f168201915b5050505050600160008573ffffffffffffffffffffffffffffffffffffffff1673ffffffffffffffffffffffffffffffffffffffff16815260200190815260200160002060000180546108c5906114ec565b80601f01602080910402602001604051908101604052809291908181526020018280546108f1906114ec565b801561093e5780601f106109135761010080835404028352916020019161093e565b820191906000526020600020905b81548152906001019060200180831161092157829003601f168201915b5050505050610db8565b156109a357600260018261095c9190611690565b8154811061096d5761096c6116c4565b5b90600052602060002090600202016000808201600061098c919061104f565b6001820160006101000a81549060ff021916905550505b80806109ae906116f3565b9150506107b2565b5060405180602001604052806000815250600160008373ffffffffffffffffffffffffffffffffffffffff1673ffffffffffffffffffffffffffffffffffffffff1681526020019081526020016000206000019080519060200190610a1c929190610f43565b506000600160008373ffffffffffffffffffffffffffffffffffffffff1673ffffffffffffffffffffffffffffffffffffffff16815260200190815260200160002060010160006101000a81548160ff021916908360ff16021790555050565b60028181548110610a8c57600080fd5b9060005260206000209060020201600091509050806000018054610aaf906114ec565b80601f0160208091040260200160405190810160405280929190818152602001828054610adb906114ec565b8015610b285780601f10610afd57610100808354040283529160200191610b28565b820191906000526020600020905b815481529060010190602001808311610b0b57829003601f168201915b5050505050908060010160009054906101000a900460ff16905082565b610b4d610f26565b600060028054905090505b6000811115610d7057610c686002600183610b739190611690565b81548110610b8457610b836116c4565b5b90600052602060002090600202016000018054610ba0906114ec565b80601f0160208091040260200160405190810160405280929190818152602001828054610bcc906114ec565b8015610c195780601f10610bee57610100808354040283529160200191610c19565b820191906000526020600020905b815481529060010190602001808311610bfc57829003601f168201915b505050505085858080601f016020809104026020016040519081016040528093929190818152602001838380828437600081840152601f19601f82011690508083019250505050505050610db8565b15610d5d576002600182610c7c9190611690565b81548110610c8d57610c8c6116c4565b5b9060005260206000209060020201604051806040016040529081600082018054610cb6906114ec565b80601f0160208091040260200160405190810160405280929190818152602001828054610ce2906114ec565b8015610d2f5780601f10610d0457610100808354040283529160200191610d2f565b820191906000526020600020905b815481529060010190602001808311610d1257829003601f168201915b505050505081526020016001820160009054906101000a900460ff1660ff1660ff1681525050915050610dac565b8080610d68906116f3565b915050610b58565b506040517f08c379a0000000000000000000000000000000000000000000000000000000008152600401610da390611569565b60405180910390fd5b92915050565b60005481565b600081604051602001610dcb9190611758565b6040516020818303038152906040528051906020012083604051602001610df29190611758565b6040516020818303038152906040528051906020012003610e165760019050610e1b565b600090505b92915050565b60008060028054905090505b6000811115610f1b57610ef96002600183610e489190611690565b81548110610e5957610e586116c4565b5b90600052602060002090600202016000018054610e75906114ec565b80601f0160208091040260200160405190810160405280929190818152602001828054610ea1906114ec565b8015610eee5780601f10610ec357610100808354040283529160200191610eee565b820191906000526020600020905b815481529060010190602001808311610ed157829003601f168201915b505050505084610db8565b15610f08576001915050610f21565b8080610f13906116f3565b915050610e2d565b50600090505b919050565b604051806040016040528060608152602001600060ff1681525090565b828054610f4f906114ec565b90600052602060002090601f016020900481019282610f715760008555610fb8565b82601f10610f8a57805160ff1916838001178555610fb8565b82800160010185558215610fb8579182015b82811115610fb7578251825591602001919060010190610f9c565b5b509050610fc5919061108f565b5090565b828054610fd5906114ec565b90600052602060002090601f016020900481019282610ff7576000855561103e565b82601f1061101057803560ff191683800117855561103e565b8280016001018555821561103e579182015b8281111561103d578235825591602001919060010190611022565b5b50905061104b919061108f565b5090565b50805461105b906114ec565b6000825580601f1061106d575061108c565b601f01602090049060005260206000209081019061108b919061108f565b5b50565b5b808211156110a8576000816000905550600101611090565b5090565b600080fd5b600080fd5b600073ffffffffffffffffffffffffffffffffffffffff82169050919050565b60006110e1826110b6565b9050919050565b6110f1816110d6565b81146110fc57600080fd5b50565b60008135905061110e816110e8565b92915050565b60006020828403121561112a576111296110ac565b5b6000611138848285016110ff565b91505092915050565b600081519050919050565b600082825260208201905092915050565b60005b8381101561117b578082015181840152602081019050611160565b8381111561118a576000848401525b50505050565b6000601f19601f8301169050919050565b60006111ac82611141565b6111b6818561114c565b93506111c681856020860161115d565b6111cf81611190565b840191505092915050565b600060ff82169050919050565b6111f0816111da565b82525050565b6000604082019050818103600083015261121081856111a1565b905061121f60208301846111e7565b9392505050565b600082825260208201905092915050565b600061124282611141565b61124c8185611226565b935061125c81856020860161115d565b61126581611190565b840191505092915050565b611279816111da565b82525050565b6000604083016000830151848203600086015261129c8282611237565b91505060208301516112b16020860182611270565b508091505092915050565b600060208201905081810360008301526112d6818461127f565b905092915050565b600080fd5b600080fd5b600080fd5b60008083601f840112611303576113026112de565b5b8235905067ffffffffffffffff8111156113205761131f6112e3565b5b60208301915083600182028301111561133c5761133b6112e8565b5b9250929050565b61134c816111da565b811461135757600080fd5b50565b60008135905061136981611343565b92915050565b60008060008060608587031215611389576113886110ac565b5b600085013567ffffffffffffffff8111156113a7576113a66110b1565b5b6113b3878288016112ed565b945094505060206113c68782880161135a565b92505060406113d7878288016110ff565b91505092959194509250565b6000819050919050565b6113f6816113e3565b811461140157600080fd5b50565b600081359050611413816113ed565b92915050565b60006020828403121561142f5761142e6110ac565b5b600061143d84828501611404565b91505092915050565b6000806020838503121561145d5761145c6110ac565b5b600083013567ffffffffffffffff81111561147b5761147a6110b1565b5b611487858286016112ed565b92509250509250929050565b61149c816113e3565b82525050565b60006020820190506114b76000830184611493565b92915050565b7f4e487b7100000000000000000000000000000000000000000000000000000000600052602260045260246000fd5b6000600282049050600182168061150457607f821691505b602082108103611517576115166114bd565b5b50919050565b7f73747564656e74206e6f74206578697374730000000000000000000000000000600082015250565b600061155360128361114c565b915061155e8261151d565b602082019050919050565b6000602082019050818103600083015261158281611546565b9050919050565b7f53747564656e7420616c72656164792065786973747300000000000000000000600082015250565b60006115bf60168361114c565b91506115ca82611589565b602082019050919050565b600060208201905081810360008301526115ee816115b2565b9050919050565b7f53747564656e74206164647265737320616c7265616479206578697374730000600082015250565b600061162b601e8361114c565b9150611636826115f5565b602082019050919050565b6000602082019050818103600083015261165a8161161e565b9050919050565b7f4e487b7100000000000000000000000000000000000000000000000000000000600052601160045260246000fd5b600061169b826113e3565b91506116a6836113e3565b9250828210156116b9576116b8611661565b5b828203905092915050565b7f4e487b7100000000000000000000000000000000000000000000000000000000600052603260045260246000fd5b60006116fe826113e3565b91506000820361171157611710611661565b5b600182039050919050565b600081905092915050565b600061173282611141565b61173c818561171c565b935061174c81856020860161115d565b80840191505092915050565b60006117648284611727565b91508190509291505056fea2646970667358221220710020a12def068a308bd2e65980ab265b7495cad12ba058214d6a09ef152a7c64736f6c634300080d0033",
  "immutableReferences": {},
  "source": "// SPDX-License-Identifier: MIT\npragma solidity 0.8.13;\n\n// import \"https://github.com/OpenZeppelin/openzeppelin-contracts/blob/master/contracts/access/Ownable.sol\";\n\ncontract Grade {\n\tstruct Student {\n\t\tstring name;\n\t\tuint8 grade;\n\t}\n\n\tuint public test;\n\n\tmapping (address => Student) public students_mapping;\n\tStudent[] public students_array;\n\n\tfunction _strcmp(string memory s1, string memory s2) private pure returns (bool){\n\t\tif (keccak256(abi.encodePacked(s1)) == keccak256(abi.encodePacked(s2))){\n\t\t\treturn (true);\n\t\t}\n\t\treturn (false);\n\t}\n\n\tfunction _emptryString(string memory _s) private pure returns (bool){\n        return bytes(_s).length == 0;\n\t}\n\n\tfunction _studentAlreadyExists(string memory _name) private view returns (bool) {\n\t\tfor (uint i = students_array.length; i > 0; i--){\n\t\t\tif (_strcmp(students_array[i - 1].name , _name)){\n\t\t\t\treturn (true);\n\t\t\t}\n\t\t}\n\t\treturn (false);\n\t}\n\n\tfunction setStudent(string calldata _name, uint8 _grade, address _at) external {\n\t\trequire(!_studentAlreadyExists(_name), \"Student already exists\");\n\t\trequire(_strcmp(students_mapping[_at].name, \"\"), \"Student address already exists\");\n\t\tstudents_array.push(Student(_name, _grade));\n\t\tstudents_mapping[_at].name = _name;\n\t\tstudents_mapping[_at].grade = _grade;\n\t}\n\t\n\tfunction deleteStudent(address _at) external {\n\t\tfor (uint i = students_array.length; i > 0; i--){\n\t\t\tif (_strcmp(students_array[i - 1].name, students_mapping[_at].name)){\n\t\t\t\tdelete students_array[i - 1];\n\t\t\t}\n\t\t}\n\t\tstudents_mapping[_at].name = \"\";\n\t\tstudents_mapping[_at].grade = 0;\n\t}\n\n\tfunction getStudentInArray(string calldata _name) external view returns (Student memory){\n\t\tfor (uint i = students_array.length; i > 0; i--){\n\t\t\tif (_strcmp(students_array[i - 1].name, _name)){\n\t\t\t\treturn (students_array[i - 1]);\n\t\t\t}\n\t\t}\n\t\trevert(\"student not exists\");\n\t}\n\n\tfunction getStudentMapping(address _at) external view returns (Student memory){\n\t\trequire(!_strcmp(students_mapping[_at].name, \"\"), \"student not exists\");\n\t\treturn (students_mapping[_at]);\n\t}\n}",
  "sourcePath": "/Users/tonted/alyra/truffleLearn/contracts/1_Grade.sol",
  "compiler": {
    "name": "solc",
    "version": "0.8.13+commit.abaa5c0e.Emscripten.clang"
  },
  "schemaVersion": "3.4.6",
  "updatedAt": "2022-03-31T23:26:00.993Z",
  "networkType": "ethereum",
  "devdoc": {
    "kind": "dev",
    "methods": {},
    "version": 1
  },
  "userdoc": {
    "kind": "user",
    "methods": {},
    "version": 1
  }
}